{
  "_format": "hh-sol-artifact-1",
  "contractName": "MyToken",
  "sourceName": "contracts/minting.sol",
  "abi": [
    {
      "inputs": [],
      "stateMutability": "nonpayable",
      "type": "constructor"
    },
    {
      "anonymous": false,
      "inputs": [
        {
          "indexed": true,
          "internalType": "address",
          "name": "owner",
          "type": "address"
        },
        {
          "indexed": true,
          "internalType": "address",
          "name": "approved",
          "type": "address"
        },
        {
          "indexed": true,
          "internalType": "uint256",
          "name": "tokenId",
          "type": "uint256"
        }
      ],
      "name": "Approval",
      "type": "event"
    },
    {
      "anonymous": false,
      "inputs": [
        {
          "indexed": true,
          "internalType": "address",
          "name": "owner",
          "type": "address"
        },
        {
          "indexed": true,
          "internalType": "address",
          "name": "operator",
          "type": "address"
        },
        {
          "indexed": false,
          "internalType": "bool",
          "name": "approved",
          "type": "bool"
        }
      ],
      "name": "ApprovalForAll",
      "type": "event"
    },
    {
      "anonymous": false,
      "inputs": [
        {
          "indexed": true,
          "internalType": "address",
          "name": "previousOwner",
          "type": "address"
        },
        {
          "indexed": true,
          "internalType": "address",
          "name": "newOwner",
          "type": "address"
        }
      ],
      "name": "OwnershipTransferred",
      "type": "event"
    },
    {
      "anonymous": false,
      "inputs": [
        {
          "indexed": true,
          "internalType": "address",
          "name": "from",
          "type": "address"
        },
        {
          "indexed": true,
          "internalType": "address",
          "name": "to",
          "type": "address"
        },
        {
          "indexed": true,
          "internalType": "uint256",
          "name": "tokenId",
          "type": "uint256"
        }
      ],
      "name": "Transfer",
      "type": "event"
    },
    {
      "inputs": [
        {
          "internalType": "address",
          "name": "to",
          "type": "address"
        },
        {
          "internalType": "uint256",
          "name": "tokenId",
          "type": "uint256"
        }
      ],
      "name": "approve",
      "outputs": [],
      "stateMutability": "nonpayable",
      "type": "function"
    },
    {
      "inputs": [
        {
          "internalType": "address",
          "name": "owner",
          "type": "address"
        }
      ],
      "name": "balanceOf",
      "outputs": [
        {
          "internalType": "uint256",
          "name": "",
          "type": "uint256"
        }
      ],
      "stateMutability": "view",
      "type": "function"
    },
    {
      "inputs": [
        {
          "internalType": "uint256",
          "name": "tokenId",
          "type": "uint256"
        }
      ],
      "name": "getApproved",
      "outputs": [
        {
          "internalType": "address",
          "name": "",
          "type": "address"
        }
      ],
      "stateMutability": "view",
      "type": "function"
    },
    {
      "inputs": [
        {
          "internalType": "address",
          "name": "owner",
          "type": "address"
        },
        {
          "internalType": "address",
          "name": "operator",
          "type": "address"
        }
      ],
      "name": "isApprovedForAll",
      "outputs": [
        {
          "internalType": "bool",
          "name": "",
          "type": "bool"
        }
      ],
      "stateMutability": "view",
      "type": "function"
    },
    {
      "inputs": [],
      "name": "mintRate",
      "outputs": [
        {
          "internalType": "uint256",
          "name": "",
          "type": "uint256"
        }
      ],
      "stateMutability": "view",
      "type": "function"
    },
    {
      "inputs": [],
      "name": "name",
      "outputs": [
        {
          "internalType": "string",
          "name": "",
          "type": "string"
        }
      ],
      "stateMutability": "view",
      "type": "function"
    },
    {
      "inputs": [],
      "name": "owner",
      "outputs": [
        {
          "internalType": "address",
          "name": "",
          "type": "address"
        }
      ],
      "stateMutability": "view",
      "type": "function"
    },
    {
      "inputs": [
        {
          "internalType": "uint256",
          "name": "tokenId",
          "type": "uint256"
        }
      ],
      "name": "ownerOf",
      "outputs": [
        {
          "internalType": "address",
          "name": "",
          "type": "address"
        }
      ],
      "stateMutability": "view",
      "type": "function"
    },
    {
      "inputs": [],
      "name": "renounceOwnership",
      "outputs": [],
      "stateMutability": "nonpayable",
      "type": "function"
    },
    {
      "inputs": [
        {
          "internalType": "address",
          "name": "to",
          "type": "address"
        }
      ],
      "name": "safeMint",
      "outputs": [],
      "stateMutability": "payable",
      "type": "function"
    },
    {
      "inputs": [
        {
          "internalType": "address",
          "name": "from",
          "type": "address"
        },
        {
          "internalType": "address",
          "name": "to",
          "type": "address"
        },
        {
          "internalType": "uint256",
          "name": "tokenId",
          "type": "uint256"
        }
      ],
      "name": "safeTransferFrom",
      "outputs": [],
      "stateMutability": "nonpayable",
      "type": "function"
    },
    {
      "inputs": [
        {
          "internalType": "address",
          "name": "from",
          "type": "address"
        },
        {
          "internalType": "address",
          "name": "to",
          "type": "address"
        },
        {
          "internalType": "uint256",
          "name": "tokenId",
          "type": "uint256"
        },
        {
          "internalType": "bytes",
          "name": "data",
          "type": "bytes"
        }
      ],
      "name": "safeTransferFrom",
      "outputs": [],
      "stateMutability": "nonpayable",
      "type": "function"
    },
    {
      "inputs": [
        {
          "internalType": "address",
          "name": "operator",
          "type": "address"
        },
        {
          "internalType": "bool",
          "name": "approved",
          "type": "bool"
        }
      ],
      "name": "setApprovalForAll",
      "outputs": [],
      "stateMutability": "nonpayable",
      "type": "function"
    },
    {
      "inputs": [],
      "name": "setBaseUri",
      "outputs": [
        {
          "internalType": "string",
          "name": "",
          "type": "string"
        }
      ],
      "stateMutability": "nonpayable",
      "type": "function"
    },
    {
      "inputs": [
        {
          "internalType": "bytes4",
          "name": "interfaceId",
          "type": "bytes4"
        }
      ],
      "name": "supportsInterface",
      "outputs": [
        {
          "internalType": "bool",
          "name": "",
          "type": "bool"
        }
      ],
      "stateMutability": "view",
      "type": "function"
    },
    {
      "inputs": [],
      "name": "symbol",
      "outputs": [
        {
          "internalType": "string",
          "name": "",
          "type": "string"
        }
      ],
      "stateMutability": "view",
      "type": "function"
    },
    {
      "inputs": [
        {
          "internalType": "uint256",
          "name": "index",
          "type": "uint256"
        }
      ],
      "name": "tokenByIndex",
      "outputs": [
        {
          "internalType": "uint256",
          "name": "",
          "type": "uint256"
        }
      ],
      "stateMutability": "view",
      "type": "function"
    },
    {
      "inputs": [
        {
          "internalType": "address",
          "name": "owner",
          "type": "address"
        },
        {
          "internalType": "uint256",
          "name": "index",
          "type": "uint256"
        }
      ],
      "name": "tokenOfOwnerByIndex",
      "outputs": [
        {
          "internalType": "uint256",
          "name": "",
          "type": "uint256"
        }
      ],
      "stateMutability": "view",
      "type": "function"
    },
    {
      "inputs": [
        {
          "internalType": "uint256",
          "name": "tokenId",
          "type": "uint256"
        }
      ],
      "name": "tokenURI",
      "outputs": [
        {
          "internalType": "string",
          "name": "",
          "type": "string"
        }
      ],
      "stateMutability": "view",
      "type": "function"
    },
    {
      "inputs": [],
      "name": "totalSupply",
      "outputs": [
        {
          "internalType": "uint256",
          "name": "",
          "type": "uint256"
        }
      ],
      "stateMutability": "view",
      "type": "function"
    },
    {
      "inputs": [
        {
          "internalType": "address",
          "name": "from",
          "type": "address"
        },
        {
          "internalType": "address",
          "name": "to",
          "type": "address"
        },
        {
          "internalType": "uint256",
          "name": "tokenId",
          "type": "uint256"
        }
      ],
      "name": "transferFrom",
      "outputs": [],
      "stateMutability": "nonpayable",
      "type": "function"
    },
    {
      "inputs": [
        {
          "internalType": "address",
          "name": "newOwner",
          "type": "address"
        }
      ],
      "name": "transferOwnership",
      "outputs": [],
      "stateMutability": "nonpayable",
      "type": "function"
    },
    {
      "inputs": [],
      "name": "withdraw",
      "outputs": [],
      "stateMutability": "nonpayable",
      "type": "function"
    }
  ],
  "bytecode": "0x608060405264e8d4a51000600d556028600e556040518060400160405280600581526020017f2e6a736f6e000000000000000000000000000000000000000000000000000000815250600f9081620000589190620004bf565b50604051806060016040528060368152602001620042336036913960109081620000839190620004bf565b503480156200009157600080fd5b506040518060400160405280600e81526020017f53757065722048617420436c75620000000000000000000000000000000000008152506040518060400160405280600481526020017f534841430000000000000000000000000000000000000000000000000000000081525081600090816200010f9190620004bf565b508060019081620001219190620004bf565b50505062000144620001386200016160201b60201c565b6200016960201b60201c565b6200015b600c6200022f60201b62000fd91760201c565b620005a6565b600033905090565b6000600b60009054906101000a900473ffffffffffffffffffffffffffffffffffffffff16905081600b60006101000a81548173ffffffffffffffffffffffffffffffffffffffff021916908373ffffffffffffffffffffffffffffffffffffffff1602179055508173ffffffffffffffffffffffffffffffffffffffff168173ffffffffffffffffffffffffffffffffffffffff167f8be0079c531659141344cd1fd0a4f28419497f9722a3daafe3b4186f6b6457e060405160405180910390a35050565b6001816000016000828254019250508190555050565b600081519050919050565b7f4e487b7100000000000000000000000000000000000000000000000000000000600052604160045260246000fd5b7f4e487b7100000000000000000000000000000000000000000000000000000000600052602260045260246000fd5b60006002820490506001821680620002c757607f821691505b602082108103620002dd57620002dc6200027f565b5b50919050565b60008190508160005260206000209050919050565b60006020601f8301049050919050565b600082821b905092915050565b600060088302620003477fffffffffffffffffffffffffffffffffffffffffffffffffffffffffffffffff8262000308565b62000353868362000308565b95508019841693508086168417925050509392505050565b6000819050919050565b6000819050919050565b6000620003a06200039a62000394846200036b565b62000375565b6200036b565b9050919050565b6000819050919050565b620003bc836200037f565b620003d4620003cb82620003a7565b84845462000315565b825550505050565b600090565b620003eb620003dc565b620003f8818484620003b1565b505050565b5b81811015620004205762000414600082620003e1565b600181019050620003fe565b5050565b601f8211156200046f576200043981620002e3565b6200044484620002f8565b8101602085101562000454578190505b6200046c6200046385620002f8565b830182620003fd565b50505b505050565b600082821c905092915050565b6000620004946000198460080262000474565b1980831691505092915050565b6000620004af838362000481565b9150826002028217905092915050565b620004ca8262000245565b67ffffffffffffffff811115620004e657620004e562000250565b5b620004f28254620002ae565b620004ff82828562000424565b600060209050601f83116001811462000537576000841562000522578287015190505b6200052e8582620004a1565b8655506200059e565b601f1984166200054786620002e3565b60005b8281101562000571578489015182556001820191506020850194506020810190506200054a565b868310156200059157848901516200058d601f89168262000481565b8355505b6001600288020188555050505b505050505050565b613c7d80620005b66000396000f3fe6080604052600436106101405760003560e01c80636352211e116100b6578063b88d4fde1161006f578063b88d4fde1461044d578063c87b56dd14610476578063ca0dcf16146104b3578063e6a9616b146104de578063e985e9c514610509578063f2fde38b1461054657610140565b80636352211e1461033d57806370a082311461037a578063715018a6146103b75780638da5cb5b146103ce57806395d89b41146103f9578063a22cb4651461042457610140565b806323b872dd1161010857806323b872dd1461023e5780632f745c59146102675780633ccfd60b146102a457806340d097c3146102bb57806342842e0e146102d75780634f6ccce71461030057610140565b806301ffc9a71461014557806306fdde0314610182578063081812fc146101ad578063095ea7b3146101ea57806318160ddd14610213575b600080fd5b34801561015157600080fd5b5061016c6004803603810190610167919061278a565b61056f565b60405161017991906127d2565b60405180910390f35b34801561018e57600080fd5b50610197610581565b6040516101a4919061287d565b60405180910390f35b3480156101b957600080fd5b506101d460048036038101906101cf91906128d5565b610613565b6040516101e19190612943565b60405180910390f35b3480156101f657600080fd5b50610211600480360381019061020c919061298a565b610659565b005b34801561021f57600080fd5b50610228610770565b60405161023591906129d9565b60405180910390f35b34801561024a57600080fd5b50610265600480360381019061026091906129f4565b61077d565b005b34801561027357600080fd5b5061028e6004803603810190610289919061298a565b6107dd565b60405161029b91906129d9565b60405180910390f35b3480156102b057600080fd5b506102b9610882565b005b6102d560048036038101906102d09190612a47565b61091d565b005b3480156102e357600080fd5b506102fe60048036038101906102f991906129f4565b610b8f565b005b34801561030c57600080fd5b50610327600480360381019061032291906128d5565b610baf565b60405161033491906129d9565b60405180910390f35b34801561034957600080fd5b50610364600480360381019061035f91906128d5565b610c20565b6040516103719190612943565b60405180910390f35b34801561038657600080fd5b506103a1600480360381019061039c9190612a47565b610ca6565b6040516103ae91906129d9565b60405180910390f35b3480156103c357600080fd5b506103cc610d5d565b005b3480156103da57600080fd5b506103e3610d71565b6040516103f09190612943565b60405180910390f35b34801561040557600080fd5b5061040e610d9b565b60405161041b919061287d565b60405180910390f35b34801561043057600080fd5b5061044b60048036038101906104469190612aa0565b610e2d565b005b34801561045957600080fd5b50610474600480360381019061046f9190612c15565b610e43565b005b34801561048257600080fd5b5061049d600480360381019061049891906128d5565b610ea5565b6040516104aa919061287d565b60405180910390f35b3480156104bf57600080fd5b506104c8610eb7565b6040516104d591906129d9565b60405180910390f35b3480156104ea57600080fd5b506104f3610ebd565b604051610500919061287d565b60405180910390f35b34801561051557600080fd5b50610530600480360381019061052b9190612c98565b610ec2565b60405161053d91906127d2565b60405180910390f35b34801561055257600080fd5b5061056d60048036038101906105689190612a47565b610f56565b005b600061057a82610fef565b9050919050565b60606000805461059090612d07565b80601f01602080910402602001604051908101604052809291908181526020018280546105bc90612d07565b80156106095780601f106105de57610100808354040283529160200191610609565b820191906000526020600020905b8154815290600101906020018083116105ec57829003601f168201915b5050505050905090565b600061061e82611069565b6004600083815260200190815260200160002060009054906101000a900473ffffffffffffffffffffffffffffffffffffffff169050919050565b600061066482610c20565b90508073ffffffffffffffffffffffffffffffffffffffff168373ffffffffffffffffffffffffffffffffffffffff16036106d4576040517f08c379a00000000000000000000000000000000000000000000000000000000081526004016106cb90612daa565b60405180910390fd5b8073ffffffffffffffffffffffffffffffffffffffff166106f36110b4565b73ffffffffffffffffffffffffffffffffffffffff16148061072257506107218161071c6110b4565b610ec2565b5b610761576040517f08c379a000000000000000000000000000000000000000000000000000000000815260040161075890612e3c565b60405180910390fd5b61076b83836110bc565b505050565b6000600880549050905090565b61078e6107886110b4565b82611175565b6107cd576040517f08c379a00000000000000000000000000000000000000000000000000000000081526004016107c490612ece565b60405180910390fd5b6107d883838361120a565b505050565b60006107e883610ca6565b8210610829576040517f08c379a000000000000000000000000000000000000000000000000000000000815260040161082090612f60565b60405180910390fd5b600660008473ffffffffffffffffffffffffffffffffffffffff1673ffffffffffffffffffffffffffffffffffffffff168152602001908152602001600020600083815260200190815260200160002054905092915050565b61088a611503565b600047116108cd576040517f08c379a00000000000000000000000000000000000000000000000000000000081526004016108c490612fcc565b60405180910390fd5b6108d5610d71565b73ffffffffffffffffffffffffffffffffffffffff166108fc479081150290604051600060405180830381858888f1935050505015801561091a573d6000803e3d6000fd5b50565b6000610929600c611581565b9050600e54811115610970576040517f08c379a00000000000000000000000000000000000000000000000000000000081526004016109679061305e565b60405180910390fd5b600d543410156109b5576040517f08c379a00000000000000000000000000000000000000000000000000000000081526004016109ac906130ca565b60405180910390fd5b6109bf600c610fd9565b6109c9828261158f565b610ae881601080546109da90612d07565b80601f0160208091040260200160405190810160405280929190818152602001828054610a0690612d07565b8015610a535780601f10610a2857610100808354040283529160200191610a53565b820191906000526020600020905b815481529060010190602001808311610a3657829003601f168201915b5050505050600f8054610a6590612d07565b80601f0160208091040260200160405190810160405280929190818152602001828054610a9190612d07565b8015610ade5780601f10610ab357610100808354040283529160200191610ade565b820191906000526020600020905b815481529060010190602001808311610ac157829003601f168201915b50505050506115ad565b60119081610af69190613296565b50610b8b8160118054610b0890612d07565b80601f0160208091040260200160405190810160405280929190818152602001828054610b3490612d07565b8015610b815780601f10610b5657610100808354040283529160200191610b81565b820191906000526020600020905b815481529060010190602001808311610b6457829003601f168201915b5050505050611603565b5050565b610baa83838360405180602001604052806000815250610e43565b505050565b6000610bb9610770565b8210610bfa576040517f08c379a0000000000000000000000000000000000000000000000000000000008152600401610bf1906133da565b60405180910390fd5b60088281548110610c0e57610c0d6133fa565b5b90600052602060002001549050919050565b600080610c2c83611670565b9050600073ffffffffffffffffffffffffffffffffffffffff168173ffffffffffffffffffffffffffffffffffffffff1603610c9d576040517f08c379a0000000000000000000000000000000000000000000000000000000008152600401610c9490613475565b60405180910390fd5b80915050919050565b60008073ffffffffffffffffffffffffffffffffffffffff168273ffffffffffffffffffffffffffffffffffffffff1603610d16576040517f08c379a0000000000000000000000000000000000000000000000000000000008152600401610d0d90613507565b60405180910390fd5b600360008373ffffffffffffffffffffffffffffffffffffffff1673ffffffffffffffffffffffffffffffffffffffff168152602001908152602001600020549050919050565b610d65611503565b610d6f60006116ad565b565b6000600b60009054906101000a900473ffffffffffffffffffffffffffffffffffffffff16905090565b606060018054610daa90612d07565b80601f0160208091040260200160405190810160405280929190818152602001828054610dd690612d07565b8015610e235780601f10610df857610100808354040283529160200191610e23565b820191906000526020600020905b815481529060010190602001808311610e0657829003601f168201915b5050505050905090565b610e3f610e386110b4565b8383611773565b5050565b610e54610e4e6110b4565b83611175565b610e93576040517f08c379a0000000000000000000000000000000000000000000000000000000008152600401610e8a90612ece565b60405180910390fd5b610e9f848484846118df565b50505050565b6060610eb08261193b565b9050919050565b600d5481565b606090565b6000600560008473ffffffffffffffffffffffffffffffffffffffff1673ffffffffffffffffffffffffffffffffffffffff16815260200190815260200160002060008373ffffffffffffffffffffffffffffffffffffffff1673ffffffffffffffffffffffffffffffffffffffff16815260200190815260200160002060009054906101000a900460ff16905092915050565b610f5e611503565b600073ffffffffffffffffffffffffffffffffffffffff168173ffffffffffffffffffffffffffffffffffffffff1603610fcd576040517f08c379a0000000000000000000000000000000000000000000000000000000008152600401610fc490613599565b60405180910390fd5b610fd6816116ad565b50565b6001816000016000828254019250508190555050565b60007f780e9d63000000000000000000000000000000000000000000000000000000007bffffffffffffffffffffffffffffffffffffffffffffffffffffffff1916827bffffffffffffffffffffffffffffffffffffffffffffffffffffffff19161480611062575061106182611a4d565b5b9050919050565b61107281611b2f565b6110b1576040517f08c379a00000000000000000000000000000000000000000000000000000000081526004016110a890613475565b60405180910390fd5b50565b600033905090565b816004600083815260200190815260200160002060006101000a81548173ffffffffffffffffffffffffffffffffffffffff021916908373ffffffffffffffffffffffffffffffffffffffff160217905550808273ffffffffffffffffffffffffffffffffffffffff1661112f83610c20565b73ffffffffffffffffffffffffffffffffffffffff167f8c5be1e5ebec7d5bd14f71427d1e84f3dd0314c0f7b2291e5b200ac8c7c3b92560405160405180910390a45050565b60008061118183610c20565b90508073ffffffffffffffffffffffffffffffffffffffff168473ffffffffffffffffffffffffffffffffffffffff1614806111c357506111c28185610ec2565b5b8061120157508373ffffffffffffffffffffffffffffffffffffffff166111e984610613565b73ffffffffffffffffffffffffffffffffffffffff16145b91505092915050565b8273ffffffffffffffffffffffffffffffffffffffff1661122a82610c20565b73ffffffffffffffffffffffffffffffffffffffff1614611280576040517f08c379a00000000000000000000000000000000000000000000000000000000081526004016112779061362b565b60405180910390fd5b600073ffffffffffffffffffffffffffffffffffffffff168273ffffffffffffffffffffffffffffffffffffffff16036112ef576040517f08c379a00000000000000000000000000000000000000000000000000000000081526004016112e6906136bd565b60405180910390fd5b6112fc8383836001611b70565b8273ffffffffffffffffffffffffffffffffffffffff1661131c82610c20565b73ffffffffffffffffffffffffffffffffffffffff1614611372576040517f08c379a00000000000000000000000000000000000000000000000000000000081526004016113699061362b565b60405180910390fd5b6004600082815260200190815260200160002060006101000a81549073ffffffffffffffffffffffffffffffffffffffff02191690556001600360008573ffffffffffffffffffffffffffffffffffffffff1673ffffffffffffffffffffffffffffffffffffffff168152602001908152602001600020600082825403925050819055506001600360008473ffffffffffffffffffffffffffffffffffffffff1673ffffffffffffffffffffffffffffffffffffffff16815260200190815260200160002060008282540192505081905550816002600083815260200190815260200160002060006101000a81548173ffffffffffffffffffffffffffffffffffffffff021916908373ffffffffffffffffffffffffffffffffffffffff160217905550808273ffffffffffffffffffffffffffffffffffffffff168473ffffffffffffffffffffffffffffffffffffffff167fddf252ad1be2c89b69c2b068fc378daa952ba7f163c4a11628f55a4df523b3ef60405160405180910390a46114fe8383836001611b82565b505050565b61150b6110b4565b73ffffffffffffffffffffffffffffffffffffffff16611529610d71565b73ffffffffffffffffffffffffffffffffffffffff161461157f576040517f08c379a000000000000000000000000000000000000000000000000000000000815260040161157690613729565b60405180910390fd5b565b600081600001549050919050565b6115a9828260405180602001604052806000815250611b88565b5050565b6060826115b985611be3565b6040516020016115ca929190613785565b604051602081830303815290604052826040516020016115eb929190613785565b60405160208183030381529060405290509392505050565b61160c82611b2f565b61164b576040517f08c379a00000000000000000000000000000000000000000000000000000000081526004016116429061381b565b60405180910390fd5b80600a6000848152602001908152602001600020908161166b9190613296565b505050565b60006002600083815260200190815260200160002060009054906101000a900473ffffffffffffffffffffffffffffffffffffffff169050919050565b6000600b60009054906101000a900473ffffffffffffffffffffffffffffffffffffffff16905081600b60006101000a81548173ffffffffffffffffffffffffffffffffffffffff021916908373ffffffffffffffffffffffffffffffffffffffff1602179055508173ffffffffffffffffffffffffffffffffffffffff168173ffffffffffffffffffffffffffffffffffffffff167f8be0079c531659141344cd1fd0a4f28419497f9722a3daafe3b4186f6b6457e060405160405180910390a35050565b8173ffffffffffffffffffffffffffffffffffffffff168373ffffffffffffffffffffffffffffffffffffffff16036117e1576040517f08c379a00000000000000000000000000000000000000000000000000000000081526004016117d890613887565b60405180910390fd5b80600560008573ffffffffffffffffffffffffffffffffffffffff1673ffffffffffffffffffffffffffffffffffffffff16815260200190815260200160002060008473ffffffffffffffffffffffffffffffffffffffff1673ffffffffffffffffffffffffffffffffffffffff16815260200190815260200160002060006101000a81548160ff0219169083151502179055508173ffffffffffffffffffffffffffffffffffffffff168373ffffffffffffffffffffffffffffffffffffffff167f17307eab39ab6107e8899845ad3d59bd9653f200f220920489ca2b5937696c31836040516118d291906127d2565b60405180910390a3505050565b6118ea84848461120a565b6118f684848484611cb1565b611935576040517f08c379a000000000000000000000000000000000000000000000000000000000815260040161192c90613919565b60405180910390fd5b50505050565b606061194682611069565b6000600a6000848152602001908152602001600020805461196690612d07565b80601f016020809104026020016040519081016040528092919081815260200182805461199290612d07565b80156119df5780601f106119b4576101008083540402835291602001916119df565b820191906000526020600020905b8154815290600101906020018083116119c257829003601f168201915b5050505050905060006119f0611e38565b90506000815103611a05578192505050611a48565b600082511115611a3a578082604051602001611a22929190613785565b60405160208183030381529060405292505050611a48565b611a4384611e4f565b925050505b919050565b60007f80ac58cd000000000000000000000000000000000000000000000000000000007bffffffffffffffffffffffffffffffffffffffffffffffffffffffff1916827bffffffffffffffffffffffffffffffffffffffffffffffffffffffff19161480611b1857507f5b5e139f000000000000000000000000000000000000000000000000000000007bffffffffffffffffffffffffffffffffffffffffffffffffffffffff1916827bffffffffffffffffffffffffffffffffffffffffffffffffffffffff1916145b80611b285750611b2782611eb7565b5b9050919050565b60008073ffffffffffffffffffffffffffffffffffffffff16611b5183611670565b73ffffffffffffffffffffffffffffffffffffffff1614159050919050565b611b7c84848484611f21565b50505050565b50505050565b611b92838361207f565b611b9f6000848484611cb1565b611bde576040517f08c379a0000000000000000000000000000000000000000000000000000000008152600401611bd590613919565b60405180910390fd5b505050565b606060006001611bf28461229c565b01905060008167ffffffffffffffff811115611c1157611c10612aea565b5b6040519080825280601f01601f191660200182016040528015611c435781602001600182028036833780820191505090505b509050600082602001820190505b600115611ca6578080600190039150507f3031323334353637383961626364656600000000000000000000000000000000600a86061a8153600a8581611c9a57611c99613939565b5b04945060008503611c51575b819350505050919050565b6000611cd28473ffffffffffffffffffffffffffffffffffffffff166123ef565b15611e2b578373ffffffffffffffffffffffffffffffffffffffff1663150b7a02611cfb6110b4565b8786866040518563ffffffff1660e01b8152600401611d1d94939291906139bd565b6020604051808303816000875af1925050508015611d5957506040513d601f19601f82011682018060405250810190611d569190613a1e565b60015b611ddb573d8060008114611d89576040519150601f19603f3d011682016040523d82523d6000602084013e611d8e565b606091505b506000815103611dd3576040517f08c379a0000000000000000000000000000000000000000000000000000000008152600401611dca90613919565b60405180910390fd5b805181602001fd5b63150b7a0260e01b7bffffffffffffffffffffffffffffffffffffffffffffffffffffffff1916817bffffffffffffffffffffffffffffffffffffffffffffffffffffffff191614915050611e30565b600190505b949350505050565b606060405180602001604052806000815250905090565b6060611e5a82611069565b6000611e64611e38565b90506000815111611e845760405180602001604052806000815250611eaf565b80611e8e84611be3565b604051602001611e9f929190613785565b6040516020818303038152906040525b915050919050565b60007f01ffc9a7000000000000000000000000000000000000000000000000000000007bffffffffffffffffffffffffffffffffffffffffffffffffffffffff1916827bffffffffffffffffffffffffffffffffffffffffffffffffffffffff1916149050919050565b611f2d84848484612412565b6001811115611f71576040517f08c379a0000000000000000000000000000000000000000000000000000000008152600401611f6890613abd565b60405180910390fd5b6000829050600073ffffffffffffffffffffffffffffffffffffffff168573ffffffffffffffffffffffffffffffffffffffff1603611fb857611fb381612418565b611ff7565b8373ffffffffffffffffffffffffffffffffffffffff168573ffffffffffffffffffffffffffffffffffffffff1614611ff657611ff58582612461565b5b5b600073ffffffffffffffffffffffffffffffffffffffff168473ffffffffffffffffffffffffffffffffffffffff160361203957612034816125ce565b612078565b8473ffffffffffffffffffffffffffffffffffffffff168473ffffffffffffffffffffffffffffffffffffffff161461207757612076848261269f565b5b5b5050505050565b600073ffffffffffffffffffffffffffffffffffffffff168273ffffffffffffffffffffffffffffffffffffffff16036120ee576040517f08c379a00000000000000000000000000000000000000000000000000000000081526004016120e590613b29565b60405180910390fd5b6120f781611b2f565b15612137576040517f08c379a000000000000000000000000000000000000000000000000000000000815260040161212e90613b95565b60405180910390fd5b612145600083836001611b70565b61214e81611b2f565b1561218e576040517f08c379a000000000000000000000000000000000000000000000000000000000815260040161218590613b95565b60405180910390fd5b6001600360008473ffffffffffffffffffffffffffffffffffffffff1673ffffffffffffffffffffffffffffffffffffffff16815260200190815260200160002060008282540192505081905550816002600083815260200190815260200160002060006101000a81548173ffffffffffffffffffffffffffffffffffffffff021916908373ffffffffffffffffffffffffffffffffffffffff160217905550808273ffffffffffffffffffffffffffffffffffffffff16600073ffffffffffffffffffffffffffffffffffffffff167fddf252ad1be2c89b69c2b068fc378daa952ba7f163c4a11628f55a4df523b3ef60405160405180910390a4612298600083836001611b82565b5050565b600080600090507a184f03e93ff9f4daa797ed6e38ed64bf6a1f01000000000000000083106122fa577a184f03e93ff9f4daa797ed6e38ed64bf6a1f01000000000000000083816122f0576122ef613939565b5b0492506040810190505b6d04ee2d6d415b85acef81000000008310612337576d04ee2d6d415b85acef8100000000838161232d5761232c613939565b5b0492506020810190505b662386f26fc10000831061236657662386f26fc10000838161235c5761235b613939565b5b0492506010810190505b6305f5e100831061238f576305f5e100838161238557612384613939565b5b0492506008810190505b61271083106123b45761271083816123aa576123a9613939565b5b0492506004810190505b606483106123d757606483816123cd576123cc613939565b5b0492506002810190505b600a83106123e6576001810190505b80915050919050565b6000808273ffffffffffffffffffffffffffffffffffffffff163b119050919050565b50505050565b6008805490506009600083815260200190815260200160002081905550600881908060018154018082558091505060019003906000526020600020016000909190919091505550565b6000600161246e84610ca6565b6124789190613be4565b905060006007600084815260200190815260200160002054905081811461255d576000600660008673ffffffffffffffffffffffffffffffffffffffff1673ffffffffffffffffffffffffffffffffffffffff168152602001908152602001600020600084815260200190815260200160002054905080600660008773ffffffffffffffffffffffffffffffffffffffff1673ffffffffffffffffffffffffffffffffffffffff168152602001908152602001600020600084815260200190815260200160002081905550816007600083815260200190815260200160002081905550505b6007600084815260200190815260200160002060009055600660008573ffffffffffffffffffffffffffffffffffffffff1673ffffffffffffffffffffffffffffffffffffffff16815260200190815260200160002060008381526020019081526020016000206000905550505050565b600060016008805490506125e29190613be4565b9050600060096000848152602001908152602001600020549050600060088381548110612612576126116133fa565b5b906000526020600020015490508060088381548110612634576126336133fa565b5b90600052602060002001819055508160096000838152602001908152602001600020819055506009600085815260200190815260200160002060009055600880548061268357612682613c18565b5b6001900381819060005260206000200160009055905550505050565b60006126aa83610ca6565b905081600660008573ffffffffffffffffffffffffffffffffffffffff1673ffffffffffffffffffffffffffffffffffffffff168152602001908152602001600020600083815260200190815260200160002081905550806007600084815260200190815260200160002081905550505050565b6000604051905090565b600080fd5b600080fd5b60007fffffffff0000000000000000000000000000000000000000000000000000000082169050919050565b61276781612732565b811461277257600080fd5b50565b6000813590506127848161275e565b92915050565b6000602082840312156127a05761279f612728565b5b60006127ae84828501612775565b91505092915050565b60008115159050919050565b6127cc816127b7565b82525050565b60006020820190506127e760008301846127c3565b92915050565b600081519050919050565b600082825260208201905092915050565b60005b8381101561282757808201518184015260208101905061280c565b60008484015250505050565b6000601f19601f8301169050919050565b600061284f826127ed565b61285981856127f8565b9350612869818560208601612809565b61287281612833565b840191505092915050565b600060208201905081810360008301526128978184612844565b905092915050565b6000819050919050565b6128b28161289f565b81146128bd57600080fd5b50565b6000813590506128cf816128a9565b92915050565b6000602082840312156128eb576128ea612728565b5b60006128f9848285016128c0565b91505092915050565b600073ffffffffffffffffffffffffffffffffffffffff82169050919050565b600061292d82612902565b9050919050565b61293d81612922565b82525050565b60006020820190506129586000830184612934565b92915050565b61296781612922565b811461297257600080fd5b50565b6000813590506129848161295e565b92915050565b600080604083850312156129a1576129a0612728565b5b60006129af85828601612975565b92505060206129c0858286016128c0565b9150509250929050565b6129d38161289f565b82525050565b60006020820190506129ee60008301846129ca565b92915050565b600080600060608486031215612a0d57612a0c612728565b5b6000612a1b86828701612975565b9350506020612a2c86828701612975565b9250506040612a3d868287016128c0565b9150509250925092565b600060208284031215612a5d57612a5c612728565b5b6000612a6b84828501612975565b91505092915050565b612a7d816127b7565b8114612a8857600080fd5b50565b600081359050612a9a81612a74565b92915050565b60008060408385031215612ab757612ab6612728565b5b6000612ac585828601612975565b9250506020612ad685828601612a8b565b9150509250929050565b600080fd5b600080fd5b7f4e487b7100000000000000000000000000000000000000000000000000000000600052604160045260246000fd5b612b2282612833565b810181811067ffffffffffffffff82111715612b4157612b40612aea565b5b80604052505050565b6000612b5461271e565b9050612b608282612b19565b919050565b600067ffffffffffffffff821115612b8057612b7f612aea565b5b612b8982612833565b9050602081019050919050565b82818337600083830152505050565b6000612bb8612bb384612b65565b612b4a565b905082815260208101848484011115612bd457612bd3612ae5565b5b612bdf848285612b96565b509392505050565b600082601f830112612bfc57612bfb612ae0565b5b8135612c0c848260208601612ba5565b91505092915050565b60008060008060808587031215612c2f57612c2e612728565b5b6000612c3d87828801612975565b9450506020612c4e87828801612975565b9350506040612c5f878288016128c0565b925050606085013567ffffffffffffffff811115612c8057612c7f61272d565b5b612c8c87828801612be7565b91505092959194509250565b60008060408385031215612caf57612cae612728565b5b6000612cbd85828601612975565b9250506020612cce85828601612975565b9150509250929050565b7f4e487b7100000000000000000000000000000000000000000000000000000000600052602260045260246000fd5b60006002820490506001821680612d1f57607f821691505b602082108103612d3257612d31612cd8565b5b50919050565b7f4552433732313a20617070726f76616c20746f2063757272656e74206f776e6560008201527f7200000000000000000000000000000000000000000000000000000000000000602082015250565b6000612d946021836127f8565b9150612d9f82612d38565b604082019050919050565b60006020820190508181036000830152612dc381612d87565b9050919050565b7f4552433732313a20617070726f76652063616c6c6572206973206e6f7420746f60008201527f6b656e206f776e6572206f7220617070726f76656420666f7220616c6c000000602082015250565b6000612e26603d836127f8565b9150612e3182612dca565b604082019050919050565b60006020820190508181036000830152612e5581612e19565b9050919050565b7f4552433732313a2063616c6c6572206973206e6f7420746f6b656e206f776e6560008201527f72206f7220617070726f76656400000000000000000000000000000000000000602082015250565b6000612eb8602d836127f8565b9150612ec382612e5c565b604082019050919050565b60006020820190508181036000830152612ee781612eab565b9050919050565b7f455243373231456e756d657261626c653a206f776e657220696e646578206f7560008201527f74206f6620626f756e6473000000000000000000000000000000000000000000602082015250565b6000612f4a602b836127f8565b9150612f5582612eee565b604082019050919050565b60006020820190508181036000830152612f7981612f3d565b9050919050565b7f42616c616e636520697320300000000000000000000000000000000000000000600082015250565b6000612fb6600c836127f8565b9150612fc182612f80565b602082019050919050565b60006020820190508181036000830152612fe581612fa9565b9050919050565b7f536f7272792c20616c6c204e4654732068617665206265656e206d696e74656460008201527f2100000000000000000000000000000000000000000000000000000000000000602082015250565b60006130486021836127f8565b915061305382612fec565b604082019050919050565b600060208201905081810360008301526130778161303b565b9050919050565b7f4e6f7420656e6f75676820657468657200000000000000000000000000000000600082015250565b60006130b46010836127f8565b91506130bf8261307e565b602082019050919050565b600060208201905081810360008301526130e3816130a7565b9050919050565b60008190508160005260206000209050919050565b60006020601f8301049050919050565b600082821b905092915050565b60006008830261314c7fffffffffffffffffffffffffffffffffffffffffffffffffffffffffffffffff8261310f565b613156868361310f565b95508019841693508086168417925050509392505050565b6000819050919050565b600061319361318e6131898461289f565b61316e565b61289f565b9050919050565b6000819050919050565b6131ad83613178565b6131c16131b98261319a565b84845461311c565b825550505050565b600090565b6131d66131c9565b6131e18184846131a4565b505050565b5b81811015613205576131fa6000826131ce565b6001810190506131e7565b5050565b601f82111561324a5761321b816130ea565b613224846130ff565b81016020851015613233578190505b61324761323f856130ff565b8301826131e6565b50505b505050565b600082821c905092915050565b600061326d6000198460080261324f565b1980831691505092915050565b6000613286838361325c565b9150826002028217905092915050565b61329f826127ed565b67ffffffffffffffff8111156132b8576132b7612aea565b5b6132c28254612d07565b6132cd828285613209565b600060209050601f83116001811461330057600084156132ee578287015190505b6132f8858261327a565b865550613360565b601f19841661330e866130ea565b60005b8281101561333657848901518255600182019150602085019450602081019050613311565b86831015613353578489015161334f601f89168261325c565b8355505b6001600288020188555050505b505050505050565b7f455243373231456e756d657261626c653a20676c6f62616c20696e646578206f60008201527f7574206f6620626f756e64730000000000000000000000000000000000000000602082015250565b60006133c4602c836127f8565b91506133cf82613368565b604082019050919050565b600060208201905081810360008301526133f3816133b7565b9050919050565b7f4e487b7100000000000000000000000000000000000000000000000000000000600052603260045260246000fd5b7f4552433732313a20696e76616c696420746f6b656e2049440000000000000000600082015250565b600061345f6018836127f8565b915061346a82613429565b602082019050919050565b6000602082019050818103600083015261348e81613452565b9050919050565b7f4552433732313a2061646472657373207a65726f206973206e6f74206120766160008201527f6c6964206f776e65720000000000000000000000000000000000000000000000602082015250565b60006134f16029836127f8565b91506134fc82613495565b604082019050919050565b60006020820190508181036000830152613520816134e4565b9050919050565b7f4f776e61626c653a206e6577206f776e657220697320746865207a65726f206160008201527f6464726573730000000000000000000000000000000000000000000000000000602082015250565b60006135836026836127f8565b915061358e82613527565b604082019050919050565b600060208201905081810360008301526135b281613576565b9050919050565b7f4552433732313a207472616e736665722066726f6d20696e636f72726563742060008201527f6f776e6572000000000000000000000000000000000000000000000000000000602082015250565b60006136156025836127f8565b9150613620826135b9565b604082019050919050565b6000602082019050818103600083015261364481613608565b9050919050565b7f4552433732313a207472616e7366657220746f20746865207a65726f2061646460008201527f7265737300000000000000000000000000000000000000000000000000000000602082015250565b60006136a76024836127f8565b91506136b28261364b565b604082019050919050565b600060208201905081810360008301526136d68161369a565b9050919050565b7f4f776e61626c653a2063616c6c6572206973206e6f7420746865206f776e6572600082015250565b60006137136020836127f8565b915061371e826136dd565b602082019050919050565b6000602082019050818103600083015261374281613706565b9050919050565b600081905092915050565b600061375f826127ed565b6137698185613749565b9350613779818560208601612809565b80840191505092915050565b60006137918285613754565b915061379d8284613754565b91508190509392505050565b7f45524337323155524953746f726167653a2055524920736574206f66206e6f6e60008201527f6578697374656e7420746f6b656e000000000000000000000000000000000000602082015250565b6000613805602e836127f8565b9150613810826137a9565b604082019050919050565b60006020820190508181036000830152613834816137f8565b9050919050565b7f4552433732313a20617070726f766520746f2063616c6c657200000000000000600082015250565b60006138716019836127f8565b915061387c8261383b565b602082019050919050565b600060208201905081810360008301526138a081613864565b9050919050565b7f4552433732313a207472616e7366657220746f206e6f6e20455243373231526560008201527f63656976657220696d706c656d656e7465720000000000000000000000000000602082015250565b60006139036032836127f8565b915061390e826138a7565b604082019050919050565b60006020820190508181036000830152613932816138f6565b9050919050565b7f4e487b7100000000000000000000000000000000000000000000000000000000600052601260045260246000fd5b600081519050919050565b600082825260208201905092915050565b600061398f82613968565b6139998185613973565b93506139a9818560208601612809565b6139b281612833565b840191505092915050565b60006080820190506139d26000830187612934565b6139df6020830186612934565b6139ec60408301856129ca565b81810360608301526139fe8184613984565b905095945050505050565b600081519050613a188161275e565b92915050565b600060208284031215613a3457613a33612728565b5b6000613a4284828501613a09565b91505092915050565b7f455243373231456e756d657261626c653a20636f6e736563757469766520747260008201527f616e7366657273206e6f7420737570706f727465640000000000000000000000602082015250565b6000613aa76035836127f8565b9150613ab282613a4b565b604082019050919050565b60006020820190508181036000830152613ad681613a9a565b9050919050565b7f4552433732313a206d696e7420746f20746865207a65726f2061646472657373600082015250565b6000613b136020836127f8565b9150613b1e82613add565b602082019050919050565b60006020820190508181036000830152613b4281613b06565b9050919050565b7f4552433732313a20746f6b656e20616c7265616479206d696e74656400000000600082015250565b6000613b7f601c836127f8565b9150613b8a82613b49565b602082019050919050565b60006020820190508181036000830152613bae81613b72565b9050919050565b7f4e487b7100000000000000000000000000000000000000000000000000000000600052601160045260246000fd5b6000613bef8261289f565b9150613bfa8361289f565b9250828203905081811115613c1257613c11613bb5565b5b92915050565b7f4e487b7100000000000000000000000000000000000000000000000000000000600052603160045260246000fdfea2646970667358221220287203217d3e0726743fb4c0d377ed50a01eee02bfa2d875eb38b1b0cf272fa564736f6c63430008120033697066733a2f2f516d535341765166713551504d47637771567533784751664c584e61596b54504b6a524b636e3350414c33486a472f",
  "linkReferences": {},
  "deployedLinkReferences": {}
}